{
  "contractName": "Survey",
  "abi": [
    {
      "constant": true,
      "inputs": [
        {
          "name": "",
          "type": "uint256"
        }
      ],
      "name": "questions",
      "outputs": [
        {
          "name": "id",
          "type": "uint256"
        },
        {
          "name": "description",
          "type": "string"
        },
        {
          "name": "isopen",
          "type": "bool"
        }
      ],
      "payable": false,
      "stateMutability": "view",
      "type": "function"
    },
    {
      "constant": true,
      "inputs": [],
      "name": "director",
      "outputs": [
        {
          "name": "",
          "type": "address"
        }
      ],
      "payable": false,
      "stateMutability": "view",
      "type": "function"
    },
    {
      "constant": true,
      "inputs": [
        {
          "name": "",
          "type": "address"
        }
      ],
      "name": "shareholders",
      "outputs": [
        {
          "name": "addr",
          "type": "address"
        }
      ],
      "payable": false,
      "stateMutability": "view",
      "type": "function"
    },
    {
      "inputs": [
        {
          "name": "questionid",
          "type": "uint256"
        },
        {
          "name": "answer",
          "type": "uint256"
        }
      ],
      "payable": false,
      "stateMutability": "view",
      "type": "function",
      "constant": true,
      "name": "majorityDecision",
      "outputs": [
        {
          "name": "majorityanswer",
          "type": "uint256"
        }
      ]
    },
    {
      "inputs": [
        {
          "name": "questionid",
          "type": "uint256"
        },
        {
          "name": "answer",
          "type": "uint256"
        }
      ],
      "payable": false,
      "stateMutability": "nonpayable",
      "type": "function",
      "constant": false,
      "name": "vote",
      "outputs": []
    },
    {
      "inputs": [
        {
          "name": "shareholderAddress",
          "type": "address[]"
        }
      ],
      "payable": false,
      "stateMutability": "nonpayable",
      "type": "constructor"
    }
  ],
  "bytecode": "0x6060604052341561000f57600080fd5b60405161081438038061081483398101604052808051820191905050600033600160006101000a81548173ffffffffffffffffffffffffffffffffffffffff021916908373ffffffffffffffffffffffffffffffffffffffff160217905550600090505b815181101561013857818181518110151561008a57fe5b906020019060200201516003600084848151811015156100a657fe5b9060200190602002015173ffffffffffffffffffffffffffffffffffffffff1673ffffffffffffffffffffffffffffffffffffffff16815260200190815260200160002060000160006101000a81548173ffffffffffffffffffffffffffffffffffffffff021916908373ffffffffffffffffffffffffffffffffffffffff1602179055508080600101915050610073565b50506106cb806101496000396000f30060606040526004361061006d576000357c0100000000000000000000000000000000000000000000000000000000900463ffffffff16806331b1b978146100725780635af82abf1461013d5780635c2930ad146101925780639759a4451461020b578063b384abef14610242575b600080fd5b341561007d57600080fd5b610093600480803590602001909190505061026e565b60405180848152602001806020018315151515815260200182810382528481815460018160011615610100020316600290048152602001915080546001816001161561010002031660029004801561012c5780601f106101015761010080835404028352916020019161012c565b820191906000526020600020905b81548152906001019060200180831161010f57829003601f168201915b505094505050505060405180910390f35b341561014857600080fd5b6101506102a4565b604051808273ffffffffffffffffffffffffffffffffffffffff1673ffffffffffffffffffffffffffffffffffffffff16815260200191505060405180910390f35b341561019d57600080fd5b6101c9600480803573ffffffffffffffffffffffffffffffffffffffff169060200190919050506102ca565b604051808273ffffffffffffffffffffffffffffffffffffffff1673ffffffffffffffffffffffffffffffffffffffff16815260200191505060405180910390f35b341561021657600080fd5b61022c6004808035906020019091905050610308565b6040518082815260200191505060405180910390f35b341561024d57600080fd5b61026c60048080359060200190919080359060200190919050506104a6565b005b600260205280600052604060002060009150905080600001549080600101908060020160009054906101000a900460ff16905083565b600160009054906101000a900473ffffffffffffffffffffffffffffffffffffffff1681565b60036020528060005260406000206000915090508060000160009054906101000a900473ffffffffffffffffffffffffffffffffffffffff16905081565b600080600080600080600033955060026000898152602001908152602001600020945060009350600160009054906101000a900473ffffffffffffffffffffffffffffffffffffffff1673ffffffffffffffffffffffffffffffffffffffff168673ffffffffffffffffffffffffffffffffffffffff16141561038e57600193506103ac565b8460020160009054906101000a900460ff1615156103ab57600193505b5b831561049b576000925060009150600090505b600260008981526020019081526020016000206003018054905081101561048457600260008981526020019081526020016000206003018181548110151561040357fe5b906000526020600020906002020160000160149054906101000a900460ff1615610477576000600260008a81526020019081526020016000206003018281548110151561044c57fe5b906000526020600020906002020160010154141561046f57600182019150610476565b6001830192505b5b80806001019150506103bf565b81831115610495576001965061049a565b600096505b5b505050505050919050565b6000806000339250600260008681526020019081526020016000209150600160009054906101000a900473ffffffffffffffffffffffffffffffffffffffff1673ffffffffffffffffffffffffffffffffffffffff168373ffffffffffffffffffffffffffffffffffffffff161415151561052057600080fd5b8160020160009054906101000a900460ff16151561053d57600080fd5b600090505b8160030180549050811015610698578273ffffffffffffffffffffffffffffffffffffffff16826003018281548110151561057957fe5b906000526020600020906002020160000160009054906101000a900473ffffffffffffffffffffffffffffffffffffffff1673ffffffffffffffffffffffffffffffffffffffff161480156105fb575081600301818154811015156105da57fe5b906000526020600020906002020160000160149054906101000a900460ff16155b1561068b5783600260008781526020019081526020016000206003018281548110151561062457fe5b9060005260206000209060020201600101819055506001600260008781526020019081526020016000206003018281548110151561065e57fe5b906000526020600020906002020160000160146101000a81548160ff021916908315150217905550610698565b8080600101915050610542565b50505050505600a165627a7a723058201c3bbd57ae381bcaa62a218723eb0f8132cb932605d8f320e6e46bf6a79eb7220029",
  "source": "pragma solidity^0.4.11;\n\ncontract Survey{\n\tstruct ShareHolder {\n\t\taddress addr;\n\t}\n\t\n\tstruct Voter {\n\t\taddress addr;\n\t\tbool voted;\n\t\tuint answer;\n\t}\n\t\n\tstruct Question {\n\t\tuint id;\n\t\tstring description;\n\t\tbool isopen;\n\t\tVoter[] voters;\n\t}\n\t\n\tuint questionCounter;\n\taddress public director;\n\tmapping (uint => Question) public questions;\n\tmapping (address => ShareHolder) public shareholders;\n\n\t//constructor\n\tfunction Survey(address[] shareholderAddress) public {\n\t\t// set owner\n\t\tdirector = msg.sender;\n\t\t\n\t\t//create shareholders\n\t\tfor (uint i = 0; i < shareholderAddress.length; i++) {\n\t\t\tshareholders[shareholderAddress[i]].addr = shareholderAddress[i]; \n        }\n\t}\n\t\n\t// set modifier which will be applied on several functions\n\tmodifier onlyDirector {\n        require(msg.sender == director);\n        _;\n    }\n\t\n\t// create question\n\tfunction createQuestion(string questiondescription) onlyDirector private {\n\t\tuint questionID = questionCounter++;\n\t\tquestions[questionID].id = questionID;\n\t\tquestions[questionID].description = questiondescription;\n\t\tquestions[questionID].isopen = true;\n\t}\n\t\n\t//add shareholder to the list of voters\n\tfunction addVoterIntoQuestion(address voteraddress, uint questionid) onlyDirector  private {\n\t\trequire(questions[questionid].isopen);\n\t\tShareHolder shareholder = shareholders[voteraddress];\n\t\tif (voteraddress != director){\n\t\t\tquestions[questionid].voters.push(Voter({addr:shareholder.addr,voted:false,answer:0}));\n\t\t}\n\t}\n\t\n\t//remove shareholder from the list of voters\n\tfunction removeVoterFromQuestion(address voteraddress, uint questionid) onlyDirector private {\n\t\trequire(questions[questionid].isopen);\n\t\t\n\t\tShareHolder shareholder = shareholders[voteraddress];\n\t\tbool found = false;\n\t\tuint tempidx = 0; \n\t\tfor (uint i=0; i< questions[questionid].voters.length; i++){\n\t\t\tif (questions[questionid].voters[i].addr == shareholder.addr){\n\t\t\t\tfound = true;\n\t\t\t\ttempidx = i;\n\t\t\t\tbreak;\n\t\t\t}\n\t\t}\n\t\t\n\t\tif(found){\n\t\t\tdelete questions[questionid].voters[tempidx];\n\t\t}\t\t\n\t}\n\t\n\t// close voting\n\tfunction closeVoting(uint questionid) onlyDirector private {\n\t\trequire(questions[questionid].isopen);\n\t\tquestions[questionid].isopen = false;\n\t}\n\t\n\t\n\t// give a vote\n\tfunction vote(uint questionid, uint answer) public {\n\t\taddress sender = msg.sender;\n        Question storage question = questions[questionid];\t\n\t\t\n\t\t//check if sender is not director and question is still open\n\t\trequire(sender != director);\n\t\trequire(question.isopen);\n\t\t\n\t\tfor (uint i=0; i<question.voters.length; i++){\n\t\t\t// if shareholder in the list of voters and he has not voted yet, then allow them to vote\n\t\t\tif (question.voters[i].addr == sender && !question.voters[i].voted){\n\t\t\t\tquestions[questionid].voters[i].answer = answer;\n\t\t\t\tquestions[questionid].voters[i].voted = true;\n\t\t\t\tbreak;\n\t\t\t}\n\t\t}\n    }\n\t\n\t//majority decision\n\tfunction majorityDecision(uint questionid) public view returns (uint majorityanswer)\n    {\n\t\taddress sender = msg.sender;\n\t\tQuestion storage question = questions[questionid];\t\n\t\tbool isabletoseetheresult = false;\n\t\t\n\t\t//director can see the result any moment\n\t\tif (sender == director){\n\t\t\tisabletoseetheresult = true;\n\t\t}\n\t\telse {\n\t\t\t// shareholders can see the result after the voting is closed\n\t\t\tif (!question.isopen){\n\t\t\t\tisabletoseetheresult = true;\n\t\t\t}\t\n\t\t}\n\t\t\n\t\tif (isabletoseetheresult){\n\t\t\tuint agree = 0;\n\t\t\tuint notagree = 0 ;\n\n\t\t\tfor (uint i = 0; i < questions[questionid].voters.length; i++) {\n\t\t\t\tif (questions[questionid].voters[i].voted) {\n\t\t\t\t   if (questions[questionid].voters[i].answer == 0){\n\t\t\t\t\t\tnotagree = notagree + 1;\n\t\t\t\t   }\n\t\t\t\t   else {\n\t\t\t\t\t\tagree = agree + 1;\n\t\t\t\t   }\n\t\t\t\t}\n\t\t\t}\n\n\t\t\tif (agree > notagree){\n\t\t\t\tmajorityanswer = 1;\n\t\t\t}\n\t\t\telse {\n\t\t\t\tmajorityanswer = 0;\n\t\t\t}\n\t\t}\n\t}\n}",
  "sourcePath": "/home/frans/Desktop/Kuliah/informationsystem/Assignments/informationsystem/assignment3/blockchains/test_contract/contracts/Survey.sol",
  "compiler": {
    "name": "solc",
    "version": "0.4.18+commit.9cf6e910.Emscripten.clang"
  },
  "schemaVersion": "1.0.1",
  "updatedAt": "2017-12-18T14:15:32.353Z"
}